{"abi":[{"type":"constructor","inputs":[{"name":"_name","type":"string","internalType":"string"},{"name":"_symbol","type":"string","internalType":"string"}],"stateMutability":"nonpayable"},{"type":"function","name":"approve","inputs":[{"name":"_approved","type":"address","internalType":"address"},{"name":"_tokenId","type":"uint256","internalType":"uint256"}],"outputs":[],"stateMutability":"payable"},{"type":"function","name":"balanceOf","inputs":[{"name":"_owner","type":"address","internalType":"address"}],"outputs":[{"name":"","type":"uint256","internalType":"uint256"}],"stateMutability":"view"},{"type":"function","name":"create","inputs":[{"name":"_uri","type":"string","internalType":"string"},{"name":"_tokenId","type":"uint256","internalType":"uint256"}],"outputs":[],"stateMutability":"nonpayable"},{"type":"function","name":"founder","inputs":[],"outputs":[{"name":"","type":"address","internalType":"address"}],"stateMutability":"view"},{"type":"function","name":"getApproved","inputs":[{"name":"_tokenId","type":"uint256","internalType":"uint256"}],"outputs":[{"name":"","type":"address","internalType":"address"}],"stateMutability":"view"},{"type":"function","name":"isApprovedForAll","inputs":[{"name":"_owner","type":"address","internalType":"address"},{"name":"_operator","type":"address","internalType":"address"}],"outputs":[{"name":"","type":"bool","internalType":"bool"}],"stateMutability":"view"},{"type":"function","name":"name","inputs":[],"outputs":[{"name":"","type":"string","internalType":"string"}],"stateMutability":"view"},{"type":"function","name":"ownerOf","inputs":[{"name":"_tokenId","type":"uint256","internalType":"uint256"}],"outputs":[{"name":"","type":"address","internalType":"address"}],"stateMutability":"view"},{"type":"function","name":"safeTransferFrom","inputs":[{"name":"_from","type":"address","internalType":"address"},{"name":"_to","type":"address","internalType":"address"},{"name":"_tokenId","type":"uint256","internalType":"uint256"}],"outputs":[],"stateMutability":"payable"},{"type":"function","name":"safeTransferFrom","inputs":[{"name":"_from","type":"address","internalType":"address"},{"name":"_to","type":"address","internalType":"address"},{"name":"_tokenId","type":"uint256","internalType":"uint256"},{"name":"data","type":"bytes","internalType":"bytes"}],"outputs":[],"stateMutability":"payable"},{"type":"function","name":"setApprovalForAll","inputs":[{"name":"_operator","type":"address","internalType":"address"},{"name":"_approved","type":"bool","internalType":"bool"}],"outputs":[],"stateMutability":"nonpayable"},{"type":"function","name":"supportsInterface","inputs":[{"name":"interfaceID","type":"bytes4","internalType":"bytes4"}],"outputs":[{"name":"","type":"bool","internalType":"bool"}],"stateMutability":"view"},{"type":"function","name":"symbol","inputs":[],"outputs":[{"name":"","type":"string","internalType":"string"}],"stateMutability":"view"},{"type":"function","name":"tokenByIndex","inputs":[{"name":"_index","type":"uint256","internalType":"uint256"}],"outputs":[{"name":"","type":"uint256","internalType":"uint256"}],"stateMutability":"view"},{"type":"function","name":"tokenOfOwnerByIndex","inputs":[{"name":"_owner","type":"address","internalType":"address"},{"name":"_index","type":"uint256","internalType":"uint256"}],"outputs":[{"name":"","type":"uint256","internalType":"uint256"}],"stateMutability":"view"},{"type":"function","name":"tokenURI","inputs":[{"name":"_tokenId","type":"uint256","internalType":"uint256"}],"outputs":[{"name":"","type":"string","internalType":"string"}],"stateMutability":"view"},{"type":"function","name":"totalSupply","inputs":[],"outputs":[{"name":"","type":"uint256","internalType":"uint256"}],"stateMutability":"view"},{"type":"function","name":"transferFrom","inputs":[{"name":"_from","type":"address","internalType":"address"},{"name":"_to","type":"address","internalType":"address"},{"name":"_tokenId","type":"uint256","internalType":"uint256"}],"outputs":[],"stateMutability":"payable"},{"type":"event","name":"Approval","inputs":[{"name":"_owner","type":"address","indexed":true,"internalType":"address"},{"name":"_approved","type":"address","indexed":true,"internalType":"address"},{"name":"_tokenId","type":"uint256","indexed":true,"internalType":"uint256"}],"anonymous":false},{"type":"event","name":"ApprovalForAll","inputs":[{"name":"_owner","type":"address","indexed":true,"internalType":"address"},{"name":"_operator","type":"address","indexed":true,"internalType":"address"},{"name":"_approved","type":"bool","indexed":false,"internalType":"bool"}],"anonymous":false},{"type":"event","name":"Transfer","inputs":[{"name":"_from","type":"address","indexed":true,"internalType":"address"},{"name":"_to","type":"address","indexed":true,"internalType":"address"},{"name":"_tokenId","type":"uint256","indexed":true,"internalType":"uint256"}],"anonymous":false},{"type":"error","name":"ERC721IncorrectOwner","inputs":[{"name":"sender","type":"address","internalType":"address"},{"name":"tokenId","type":"uint256","internalType":"uint256"},{"name":"owner","type":"address","internalType":"address"}]},{"type":"error","name":"ERC721InvalidReceiver","inputs":[{"name":"receiver","type":"address","internalType":"address"}]},{"type":"error","name":"ERC721NonexistentToken","inputs":[{"name":"tokenId","type":"uint256","internalType":"uint256"}]}],"bytecode":{"object":"0x608060405234801561001057600080fd5b5060405161186938038061186983398101604081905261002f9161012a565b60006009819055600a8190556100458382610218565b5060016100528282610218565b5050600d80546001600160a01b03191633179055506102d7565b634e487b7160e01b600052604160045260246000fd5b600082601f83011261009357600080fd5b81516001600160401b03808211156100ad576100ad61006c565b604051601f8301601f19908116603f011681019082821181831017156100d5576100d561006c565b81604052838152602092508660208588010111156100f257600080fd5b600091505b8382101561011457858201830151818301840152908201906100f7565b6000602085830101528094505050505092915050565b6000806040838503121561013d57600080fd5b82516001600160401b038082111561015457600080fd5b61016086838701610082565b9350602085015191508082111561017657600080fd5b5061018385828601610082565b9150509250929050565b600181811c908216806101a157607f821691505b6020821081036101c157634e487b7160e01b600052602260045260246000fd5b50919050565b601f821115610213576000816000526020600020601f850160051c810160208610156101f05750805b601f850160051c820191505b8181101561020f578281556001016101fc565b5050505b505050565b81516001600160401b038111156102315761023161006c565b6102458161023f845461018d565b846101c7565b602080601f83116001811461027a57600084156102625750858301515b600019600386901b1c1916600185901b17855561020f565b600085815260208120601f198616915b828110156102a95788860151825594840194600190910190840161028a565b50858210156102c75787850151600019600388901b60f8161c191681555b5050505050600190811b01905550565b611583806102e66000396000f3fe6080604052600436106101095760003560e01c80634d853ee51161009557806395d89b411161006457806395d89b41146102b5578063a22cb465146102ca578063b88d4fde146102ea578063c87b56dd146102fd578063e985e9c51461031d57600080fd5b80634d853ee5146102375780634f6ccce7146102555780636352211e1461027557806370a082311461029557600080fd5b806318160ddd116100dc57806318160ddd146101b257806323b872dd146101d15780632f745c59146101e457806342842e0e1461020457806346f81a871461021757600080fd5b806301ffc9a71461010e57806306fdde0314610143578063081812fc14610165578063095ea7b31461019d575b600080fd5b34801561011a57600080fd5b5061012e610129366004611038565b610366565b60405190151581526020015b60405180910390f35b34801561014f57600080fd5b50610158610391565b60405161013a91906110a2565b34801561017157600080fd5b506101856101803660046110b5565b610423565b6040516001600160a01b03909116815260200161013a565b6101b06101ab3660046110ea565b610483565b005b3480156101be57600080fd5b506008545b60405190815260200161013a565b6101b06101df366004611114565b61058c565b3480156101f057600080fd5b506101c36101ff3660046110ea565b610676565b6101b0610212366004611114565b6107d2565b34801561022357600080fd5b506101b06102323660046111dc565b6108e4565b34801561024357600080fd5b50600d546001600160a01b0316610185565b34801561026157600080fd5b506101c36102703660046110b5565b6109f0565b34801561028157600080fd5b506101856102903660046110b5565b610aa3565b3480156102a157600080fd5b506101c36102b0366004611235565b610af5565b3480156102c157600080fd5b50610158610b3b565b3480156102d657600080fd5b506101b06102e5366004611250565b610b4a565b6101b06102f836600461128c565b610bde565b34801561030957600080fd5b506101586103183660046110b5565b610ce2565b34801561032957600080fd5b5061012e610338366004611308565b6001600160a01b03918216600090815260056020908152604080832093909416825291909152205460ff1690565b60006001600160e01b0319821663780e9d6360e01b148061038b575061038b82610d84565b92915050565b6060600080546103a09061133b565b80601f01602080910402602001604051908101604052809291908181526020018280546103cc9061133b565b80156104195780601f106103ee57610100808354040283529160200191610419565b820191906000526020600020905b8154815290600101906020018083116103fc57829003601f168201915b5050505050905090565b60008181526004602052604081205482906001600160a01b031661046257604051637e27328960e01b8152600481018290526024015b60405180910390fd5b6000838152600660205260409020546001600160a01b031691505b50919050565b6000818152600460205260409020546001600160a01b03163314806104d957506000818152600460209081526040808320546001600160a01b031683526005825280832033845290915290205460ff1615156001145b6105255760405162461bcd60e51b815260206004820152601a60248201527f6e6f7420616e20617574686f72697a6564206f70657261746f720000000000006044820152606401610459565b600081815260066020908152604080832080546001600160a01b0319166001600160a01b038781169182179092556004909352818420549151859492909116917f8c5be1e5ebec7d5bd14f71427d1e84f3dd0314c0f7b2291e5b200ac8c7c3b92591a45050565b60008181526004602052604090205481906001600160a01b031633148015906105e757506000818152600460209081526040808320546001600160a01b031683526005825280832033845290915290205460ff161515600114155b801561060a57506000818152600660205260409020546001600160a01b03163314155b15610655576000818152600460208190526040918290205491516364283d7b60e01b81523391810191909152602481018390526001600160a01b039091166044820152606401610459565b61067084848460405180602001604052806000815250610dd4565b50505050565b6001600160a01b03821660009081526003602052604081205482106106d65760405162461bcd60e51b815260206004820152601660248201527534b73b30b634b21034b73232bc1037b31037bbb732b960511b6044820152606401610459565b6001600160a01b0383166000818152600c602090815260408083208151808301835281548152600191820154818501908152868652600b855283862090518652845282852083518085018552815481529083015481860152958552600390935290832054919392916107489190611385565b90505b8481111561079f576001600160a01b0386166000908152600b60209081526040808320945183529381529083902083518085019094528054845260010154908301528061079781611398565b91505061074b565b506001600160a01b0385166000908152600b60209081526040808320938201518352929052206001015491505092915050565b60008181526004602052604090205481906001600160a01b0316331480159061082d57506000818152600460209081526040808320546001600160a01b031683526005825280832033845290915290205460ff161515600114155b801561085057506000818152600660205260409020546001600160a01b03163314155b1561089b576000818152600460208190526040918290205491516364283d7b60e01b81523391810191909152602481018390526001600160a01b039091166044820152606401610459565b826001600160a01b0381166108c25760405162461bcd60e51b8152600401610459906113af565b6108dd85858560405180602001604052806000815250610dd4565b5050505050565b6000818152600460205260409020546001600160a01b0316156109395760405162461bcd60e51b815260206004820152600d60248201526c1d1bdad95b8818dc99585d1959609a1b6044820152606401610459565b60016008600082825461094c91906113d8565b90915550506000818152600760209081526040808320600a805480835560018301878155600991909155549055600290925290912061098b8482611433565b50600080805260036020527f3617319a054d772f909f7c479a2cebe5066e836a939412e32403c99029b92eff8054600192906109c89084906113d8565b925050819055506109eb6000338460405180602001604052806000815250610dd4565b505050565b6000816008548110610a0157600080fd5b600a54600090815260076020908152604080832081518083019092528054825260019081015492820192909252600854909291610a3d91611385565b90505b84811115610a8357905160009081526007602090815260409182902082518084019093528054835260010154908201529080610a7b81611398565b915050610a40565b506020908101516000908152600790915260409020600101549392505050565b6000818152600460205260408120546001600160a01b031680610ad85760405162461bcd60e51b8152600401610459906113af565b50506000908152600460205260409020546001600160a01b031690565b6000816001600160a01b038116610b1e5760405162461bcd60e51b8152600401610459906113af565b50506001600160a01b031660009081526003602052604090205490565b6060600180546103a09061133b565b816001600160a01b038116610b715760405162461bcd60e51b8152600401610459906113af565b3360008181526005602090815260408083206001600160a01b03881680855290835292819020805460ff191687151590811790915590519081529192917f17307eab39ab6107e8899845ad3d59bd9653f200f220920489ca2b5937696c31910160405180910390a3505050565b60008281526004602052604090205482906001600160a01b03163314801590610c3957506000818152600460209081526040808320546001600160a01b031683526005825280832033845290915290205460ff161515600114155b8015610c5c57506000818152600660205260409020546001600160a01b03163314155b15610ca7576000818152600460208190526040918290205491516364283d7b60e01b81523391810191909152602481018390526001600160a01b039091166044820152606401610459565b836001600160a01b038116610cce5760405162461bcd60e51b8152600401610459906113af565b610cda86868686610dd4565b505050505050565b6000818152600260205260409020805460609190610cff9061133b565b80601f0160208091040260200160405190810160405280929190818152602001828054610d2b9061133b565b8015610d785780601f10610d4d57610100808354040283529160200191610d78565b820191906000526020600020905b815481529060010190602001808311610d5b57829003601f168201915b50505050509050919050565b60006001600160e01b031982166380ac58cd60e01b1480610db557506001600160e01b03198216635b5e139f60e01b145b8061038b57506301ffc9a760e01b6001600160e01b031983161461038b565b610de084848484610e47565b506001600160a01b039283166000908152600b6020818152604080842085855282528084208481556001908101859055959096168084529181528583208484528152858320918352600c905293902083830191825591820180549384905592909155549055565b600082815260046020908152604080832080546001600160a01b0319166001600160a01b038816908117909155835260039091528120805460019290610e8e9084906113d8565b90915550506001600160a01b0384166000908152600360205260408120805460019290610ebc908490611385565b909155505060405182906001600160a01b0380861691908716907fddf252ad1be2c89b69c2b068fc378daa952ba7f163c4a11628f55a4df523b3ef90600090a4610670848484846000833b131561067057604051630a85bd0160e11b81526001600160a01b0384169063150b7a0290610f3f9033908890879087906004016114f3565b6020604051808303816000875af1925050508015610f7a575060408051601f3d908101601f19168201909252610f7791810190611530565b60015b610fe3573d808015610fa8576040519150601f19603f3d011682016040523d82523d6000602084013e610fad565b606091505b508051600003610fdb57604051633250574960e11b81526001600160a01b0385166004820152602401610459565b805181602001fd5b6001600160e01b03198116630a85bd0160e11b146108dd57604051633250574960e11b81526001600160a01b0385166004820152602401610459565b6001600160e01b03198116811461103557600080fd5b50565b60006020828403121561104a57600080fd5b81356110558161101f565b9392505050565b6000815180845260005b8181101561108257602081850181015186830182015201611066565b506000602082860101526020601f19601f83011685010191505092915050565b602081526000611055602083018461105c565b6000602082840312156110c757600080fd5b5035919050565b80356001600160a01b03811681146110e557600080fd5b919050565b600080604083850312156110fd57600080fd5b611106836110ce565b946020939093013593505050565b60008060006060848603121561112957600080fd5b611132846110ce565b9250611140602085016110ce565b9150604084013590509250925092565b634e487b7160e01b600052604160045260246000fd5b600067ffffffffffffffff8084111561118157611181611150565b604051601f8501601f19908116603f011681019082821181831017156111a9576111a9611150565b816040528093508581528686860111156111c257600080fd5b858560208301376000602087830101525050509392505050565b600080604083850312156111ef57600080fd5b823567ffffffffffffffff81111561120657600080fd5b8301601f8101851361121757600080fd5b61122685823560208401611166565b95602094909401359450505050565b60006020828403121561124757600080fd5b611055826110ce565b6000806040838503121561126357600080fd5b61126c836110ce565b91506020830135801515811461128157600080fd5b809150509250929050565b600080600080608085870312156112a257600080fd5b6112ab856110ce565b93506112b9602086016110ce565b925060408501359150606085013567ffffffffffffffff8111156112dc57600080fd5b8501601f810187136112ed57600080fd5b6112fc87823560208401611166565b91505092959194509250565b6000806040838503121561131b57600080fd5b611324836110ce565b9150611332602084016110ce565b90509250929050565b600181811c9082168061134f57607f821691505b60208210810361047d57634e487b7160e01b600052602260045260246000fd5b634e487b7160e01b600052601160045260246000fd5b8181038181111561038b5761038b61136f565b6000816113a7576113a761136f565b506000190190565b6020808252600f908201526e696e76616c6964206164647265737360881b604082015260600190565b8082018082111561038b5761038b61136f565b601f8211156109eb576000816000526020600020601f850160051c810160208610156114145750805b601f850160051c820191505b81811015610cda57828155600101611420565b815167ffffffffffffffff81111561144d5761144d611150565b6114618161145b845461133b565b846113eb565b602080601f831160018114611496576000841561147e5750858301515b600019600386901b1c1916600185901b178555610cda565b600085815260208120601f198616915b828110156114c5578886015182559484019460019091019084016114a6565b50858210156114e35787850151600019600388901b60f8161c191681555b5050505050600190811b01905550565b6001600160a01b03858116825284166020820152604081018390526080606082018190526000906115269083018461105c565b9695505050505050565b60006020828403121561154257600080fd5b81516110558161101f56fea264697066735822122046d4cd7ccd98c75f183b5d5e3a3ba46e3cc94a8b16ca92d83e98a2440930f61364736f6c63430008190033","linkReferences":{}},"methodIdentifiers":{"approve(address,uint256)":"095ea7b3","balanceOf(address)":"70a08231","create(string,uint256)":"46f81a87","founder()":"4d853ee5","getApproved(uint256)":"081812fc","isApprovedForAll(address,address)":"e985e9c5","name()":"06fdde03","ownerOf(uint256)":"6352211e","safeTransferFrom(address,address,uint256)":"42842e0e","safeTransferFrom(address,address,uint256,bytes)":"b88d4fde","setApprovalForAll(address,bool)":"a22cb465","supportsInterface(bytes4)":"01ffc9a7","symbol()":"95d89b41","tokenByIndex(uint256)":"4f6ccce7","tokenOfOwnerByIndex(address,uint256)":"2f745c59","tokenURI(uint256)":"c87b56dd","totalSupply()":"18160ddd","transferFrom(address,address,uint256)":"23b872dd"},"id":10}